8=FIXT.1.1|9=77|35=A|49=DLD_TEX|56=TEX1_DLD|34=1|52=20151128-17:59:35.877|98=0|108=10|1137=8|10=035|8=FIXT.1.1|9=58|35=0|49=DLD_TEX|56=TEX1_DLD|34=2|52=20151128-17:59:45.931|10=177|8=FIXT.1.1|9=356|35=D|49=DLD_TEX|56=TEX1_DLD|34=3|52=20151128-17:59:50.538|11=ord1|453=0|78=1|79=Account1|539=1|524=nestedpartyID1|804=1|545=subnestedpartyID1|55=BHP|711=3|311=BLAH|879=869.0|311=FOO|457=2|458=UnderBlah|458=OverFoo|311=BOOM|887=5|888=Reverera|888=Orlanda|888=Withroon|888=Longweed|888=Blechnod|54=1|60=20151128-17:59:50.535|38=5472.0|40=2|44=481.19398|59=4|10=189|8=FIXT.1.1|9=356|35=D|49=DLD_TEX|56=TEX1_DLD|34=4|52=20151128-17:59:50.538|11=ord2|453=0|78=1|79=Account1|539=1|524=nestedpartyID1|804=1|545=subnestedpartyID1|55=BHP|711=3|311=BLAH|879=393.0|311=FOO|457=2|458=UnderBlah|458=OverFoo|311=BOOM|887=5|888=Reverera|888=Orlanda|888=Withroon|888=Longweed|888=Blechnod|54=1|60=20151128-17:59:50.535|38=7145.0|40=2|44=455.64832|59=4|10=176|8=FIXT.1.1|9=356|35=D|49=DLD_TEX|56=TEX1_DLD|34=5|52=20151128-17:59:50.538|11=ord3|453=0|78=1|79=Account1|539=1|524=nestedpartyID1|804=1|545=subnestedpartyID1|55=BHP|711=3|311=BLAH|879=351.0|311=FOO|457=2|458=UnderBlah|458=OverFoo|311=BOOM|887=5|888=Reverera|888=Orlanda|888=Withroon|888=Longweed|888=Blechnod|54=1|60=20151128-17:59:50.535|38=8169.0|40=2|44=153.58286|59=4|10=180|8=FIXT.1.1|9=355|35=D|49=DLD_TEX|56=TEX1_DLD|34=6|52=20151128-17:59:50.538|11=ord4|453=0|78=1|79=Account1|539=1|524=nestedpartyID1|804=1|545=subnestedpartyID1|55=BHP|711=3|311=BLAH|879=446.0|311=FOO|457=2|458=UnderBlah|458=OverFoo|311=BOOM|887=5|888=Reverera|888=Orlanda|888=Withroon|888=Longweed|888=Blechnod|54=1|60=20151128-17:59:50.535|38=5440.0|40=2|44=73.91056|59=4|10=120|8=FIXT.1.1|9=356|35=D|49=DLD_TEX|56=TEX1_DLD|34=7|52=20151128-17:59:50.538|11=ord5|453=0|78=1|79=Account1|539=1|524=nestedpartyID1|804=1|545=subnestedpartyID1|55=BHP|711=3|311=BLAH|879=500.0|311=FOO|457=2|458=UnderBlah|458=OverFoo|311=BOOM|887=5|888=Reverera|888=Orlanda|888=Withroon|888=Longweed|888=Blechnod|54=1|60=20151128-17:59:50.536|38=3539.0|40=2|44=358.13706|59=4|10=172|8=FIXT.1.1|9=355|35=D|49=DLD_TEX|56=TEX1_DLD|34=8|52=20151128-17:59:50.538|11=ord6|453=0|78=1|79=Account1|539=1|524=nestedpartyID1|804=1|545=subnestedpartyID1|55=BHP|711=3|311=BLAH|879=582.0|311=FOO|457=2|458=UnderBlah|458=OverFoo|311=BOOM|887=5|888=Reverera|888=Orlanda|888=Withroon|888=Longweed|888=Blechnod|54=1|60=20151128-17:59:50.536|38=8140.0|40=2|44=40.81856|59=4|10=127|8=FIXT.1.1|9=356|35=D|49=DLD_TEX|56=TEX1_DLD|34=9|52=20151128-17:59:50.538|11=ord7|453=0|78=1|79=Account1|539=1|524=nestedpartyID1|804=1|545=subnestedpartyID1|55=BHP|711=3|311=BLAH|879=919.0|311=FOO|457=2|458=UnderBlah|458=OverFoo|311=BOOM|887=5|888=Reverera|888=Orlanda|888=Withroon|888=Longweed|888=Blechnod|54=1|60=20151128-17:59:50.536|38=7529.0|40=2|44=499.06408|59=4|10=200|8=FIXT.1.1|9=357|35=D|49=DLD_TEX|56=TEX1_DLD|34=10|52=20151128-17:59:50.538|11=ord8|453=0|78=1|79=Account1|539=1|524=nestedpartyID1|804=1|545=subnestedpartyID1|55=BHP|711=3|311=BLAH|879=970.0|311=FOO|457=2|458=UnderBlah|458=OverFoo|311=BOOM|887=5|888=Reverera|888=Orlanda|888=Withroon|888=Longweed|888=Blechnod|54=1|60=20151128-17:59:50.536|38=4962.0|40=2|44=474.90555|59=4|10=236|8=FIXT.1.1|9=357|35=D|49=DLD_TEX|56=TEX1_DLD|34=11|52=20151128-17:59:50.538|11=ord9|453=0|78=1|79=Account1|539=1|524=nestedpartyID1|804=1|545=subnestedpartyID1|55=BHP|711=3|311=BLAH|879=158.0|311=FOO|457=2|458=UnderBlah|458=OverFoo|311=BOOM|887=5|888=Reverera|888=Orlanda|888=Withroon|888=Longweed|888=Blechnod|54=1|60=20151128-17:59:50.536|38=4977.0|40=2|44=496.04892|59=4|10=245|8=FIXT.1.1|9=358|35=D|49=DLD_TEX|56=TEX1_DLD|34=12|52=20151128-17:59:50.539|11=ord10|453=0|78=1|79=Account1|539=1|524=nestedpartyID1|804=1|545=subnestedpartyID1|55=BHP|711=3|311=BLAH|879=874.0|311=FOO|457=2|458=UnderBlah|458=OverFoo|311=BOOM|887=5|888=Reverera|888=Orlanda|888=Withroon|888=Longweed|888=Blechnod|54=1|60=20151128-17:59:50.536|38=7854.0|40=2|44=121.62807|59=4|10=019|8=FIXT.1.1|9=357|35=D|49=DLD_TEX|56=TEX1_DLD|34=13|52=20151128-17:59:50.539|11=ord11|453=0|78=1|79=Account1|539=1|524=nestedpartyID1|804=1|545=subnestedpartyID1|55=BHP|711=3|311=BLAH|879=422.0|311=FOO|457=2|458=UnderBlah|458=OverFoo|311=BOOM|887=5|888=Reverera|888=Orlanda|888=Withroon|888=Longweed|888=Blechnod|54=1|60=20151128-17:59:50.536|38=7478.0|40=2|44=119.1662|59=4|10=218|8=FIXT.1.1|9=356|35=D|49=DLD_TEX|56=TEX1_DLD|34=14|52=20151128-17:59:50.539|11=ord12|453=0|78=1|79=Account1|539=1|524=nestedpartyID1|804=1|545=subnestedpartyID1|55=BHP|711=3|311=BLAH|879=137.0|311=FOO|457=2|458=UnderBlah|458=OverFoo|311=BOOM|887=5|888=Reverera|888=Orlanda|888=Withroon|888=Longweed|888=Blechnod|54=1|60=20151128-17:59:50.536|38=6591.0|40=2|44=53.6306|59=4|10=166|8=FIXT.1.1|9=358|35=D|49=DLD_TEX|56=TEX1_DLD|34=15|52=20151128-17:59:50.539|11=ord13|453=0|78=1|79=Account1|539=1|524=nestedpartyID1|804=1|545=subnestedpartyID1|55=BHP|711=3|311=BLAH|879=953.0|311=FOO|457=2|458=UnderBlah|458=OverFoo|311=BOOM|887=5|888=Reverera|888=Orlanda|888=Withroon|888=Longweed|888=Blechnod|54=1|60=20151128-17:59:50.536|38=9663.0|40=2|44=250.30078|59=4|10=021|8=FIXT.1.1|9=358|35=D|49=DLD_TEX|56=TEX1_DLD|34=16|52=20151128-17:59:50.539|11=ord14|453=0|78=1|79=Account1|539=1|524=nestedpartyID1|804=1|545=subnestedpartyID1|55=BHP|711=3|311=BLAH|879=497.0|311=FOO|457=2|458=UnderBlah|458=OverFoo|311=BOOM|887=5|888=Reverera|888=Orlanda|888=Withroon|888=Longweed|888=Blechnod|54=1|60=20151128-17:59:50.536|38=1142.0|40=2|44=425.62298|59=4|10=023|8=FIXT.1.1|9=358|35=D|49=DLD_TEX|56=TEX1_DLD|34=17|52=20151128-17:59:50.539|11=ord15|453=0|78=1|79=Account1|539=1|524=nestedpartyID1|804=1|545=subnestedpartyID1|55=BHP|711=3|311=BLAH|879=851.0|311=FOO|457=2|458=UnderBlah|458=OverFoo|311=BOOM|887=5|888=Reverera|888=Orlanda|888=Withroon|888=Longweed|888=Blechnod|54=1|60=20151128-17:59:50.536|38=8304.0|40=2|44=148.64565|59=4|10=027|8=FIXT.1.1|9=358|35=D|49=DLD_TEX|56=TEX1_DLD|34=18|52=20151128-17:59:50.539|11=ord16|453=0|78=1|79=Account1|539=1|524=nestedpartyID1|804=1|545=subnestedpartyID1|55=BHP|711=3|311=BLAH|879=665.0|311=FOO|457=2|458=UnderBlah|458=OverFoo|311=BOOM|887=5|888=Reverera|888=Orlanda|888=Withroon|888=Longweed|888=Blechnod|54=1|60=20151128-17:59:50.536|38=9120.0|40=2|44=398.60358|59=4|10=032|8=FIXT.1.1|9=356|35=D|49=DLD_TEX|56=TEX1_DLD|34=19|52=20151128-17:59:50.539|11=ord17|453=0|78=1|79=Account1|539=1|524=nestedpartyID1|804=1|545=subnestedpartyID1|55=BHP|711=3|311=BLAH|879=418.0|311=FOO|457=2|458=UnderBlah|458=OverFoo|311=BOOM|887=5|888=Reverera|888=Orlanda|888=Withroon|888=Longweed|888=Blechnod|54=1|60=20151128-17:59:50.536|38=9101.0|40=2|44=189.794|59=4|10=183|8=FIXT.1.1|9=358|35=D|49=DLD_TEX|56=TEX1_DLD|34=20|52=20151128-17:59:50.539|11=ord18|453=0|78=1|79=Account1|539=1|524=nestedpartyID1|804=1|545=subnestedpartyID1|55=BHP|711=3|311=BLAH|879=914.0|311=FOO|457=2|458=UnderBlah|458=OverFoo|311=BOOM|887=5|888=Reverera|888=Orlanda|888=Withroon|888=Longweed|888=Blechnod|54=1|60=20151128-17:59:50.536|38=8600.0|40=2|44=149.62122|59=4|10=011|8=FIXT.1.1|9=358|35=D|49=DLD_TEX|56=TEX1_DLD|34=21|52=20151128-17:59:50.539|11=ord19|453=0|78=1|79=Account1|539=1|524=nestedpartyID1|804=1|545=subnestedpartyID1|55=BHP|711=3|311=BLAH|879=412.0|311=FOO|457=2|458=UnderBlah|458=OverFoo|311=BOOM|887=5|888=Reverera|888=Orlanda|888=Withroon|888=Longweed|888=Blechnod|54=1|60=20151128-17:59:50.536|38=8521.0|40=2|44=134.78917|59=4|10=021|8=FIXT.1.1|9=357|35=D|49=DLD_TEX|56=TEX1_DLD|34=22|52=20151128-17:59:50.539|11=ord20|453=0|78=1|79=Account1|539=1|524=nestedpartyID1|804=1|545=subnestedpartyID1|55=BHP|711=3|311=BLAH|879=198.0|311=FOO|457=2|458=UnderBlah|458=OverFoo|311=BOOM|887=5|888=Reverera|888=Orlanda|888=Withroon|888=Longweed|888=Blechnod|54=1|60=20151128-17:59:50.536|38=954.0|40=2|44=213.65599|59=4|10=234|8=FIXT.1.1|9=357|35=D|49=DLD_TEX|56=TEX1_DLD|34=23|52=20151128-17:59:50.539|11=ord21|453=0|78=1|79=Account1|539=1|524=nestedpartyID1|804=1|545=subnestedpartyID1|55=BHP|711=3|311=BLAH|879=945.0|311=FOO|457=2|458=UnderBlah|458=OverFoo|311=BOOM|887=5|888=Reverera|888=Orlanda|888=Withroon|888=Longweed|888=Blechnod|54=1|60=20151128-17:59:50.536|38=3337.0|40=2|44=150.9134|59=4|10=217|8=FIXT.1.1|9=358|35=D|49=DLD_TEX|56=TEX1_DLD|34=24|52=20151128-17:59:50.539|11=ord22|453=0|78=1|79=Account1|539=1|524=nestedpartyID1|804=1|545=subnestedpartyID1|55=BHP|711=3|311=BLAH|879=604.0|311=FOO|457=2|458=UnderBlah|458=OverFoo|311=BOOM|887=5|888=Reverera|888=Orlanda|888=Withroon|888=Longweed|888=Blechnod|54=1|60=20151128-17:59:50.537|38=4409.0|40=2|44=361.76872|59=4|10=023|8=FIXT.1.1|9=358|35=D|49=DLD_TEX|56=TEX1_DLD|34=25|52=20151128-17:59:50.539|11=ord23|453=0|78=1|79=Account1|539=1|524=nestedpartyID1|804=1|545=subnestedpartyID1|55=BHP|711=3|311=BLAH|879=571.0|311=FOO|457=2|458=UnderBlah|458=OverFoo|311=BOOM|887=5|888=Reverera|888=Orlanda|888=Withroon|888=Longweed|888=Blechnod|54=1|60=20151128-17:59:50.537|38=9415.0|40=2|44=429.86988|59=4|10=044|8=FIXT.1.1|9=358|35=D|49=DLD_TEX|56=TEX1_DLD|34=26|52=20151128-17:59:50.539|11=ord24|453=0|78=1|79=Account1|539=1|524=nestedpartyID1|804=1|545=subnestedpartyID1|55=BHP|711=3|311=BLAH|879=685.0|311=FOO|457=2|458=UnderBlah|458=OverFoo|311=BOOM|887=5|888=Reverera|888=Orlanda|888=Withroon|888=Longweed|888=Blechnod|54=1|60=20151128-17:59:50.537|38=7928.0|40=2|44=406.43539|59=4|10=039|8=FIXT.1.1|9=357|35=D|49=DLD_TEX|56=TEX1_DLD|34=27|52=20151128-17:59:50.539|11=ord25|453=0|78=1|79=Account1|539=1|524=nestedpartyID1|804=1|545=subnestedpartyID1|55=BHP|711=3|311=BLAH|879=515.0|311=FOO|457=2|458=UnderBlah|458=OverFoo|311=BOOM|887=5|888=Reverera|888=Orlanda|888=Withroon|888=Longweed|888=Blechnod|54=1|60=20151128-17:59:50.537|38=901.0|40=2|44=154.97984|59=4|10=237|8=FIXT.1.1|9=357|35=D|49=DLD_TEX|56=TEX1_DLD|34=28|52=20151128-17:59:50.539|11=ord26|453=0|78=1|79=Account1|539=1|524=nestedpartyID1|804=1|545=subnestedpartyID1|55=BHP|711=3|311=BLAH|879=427.0|311=FOO|457=2|458=UnderBlah|458=OverFoo|311=BOOM|887=5|888=Reverera|888=Orlanda|888=Withroon|888=Longweed|888=Blechnod|54=1|60=20151128-17:59:50.537|38=8872.0|40=2|44=80.48271|59=4|10=239|8=FIXT.1.1|9=358|35=D|49=DLD_TEX|56=TEX1_DLD|34=29|52=20151128-17:59:50.539|11=ord27|453=0|78=1|79=Account1|539=1|524=nestedpartyID1|804=1|545=subnestedpartyID1|55=BHP|711=3|311=BLAH|879=338.0|311=FOO|457=2|458=UnderBlah|458=OverFoo|311=BOOM|887=5|888=Reverera|888=Orlanda|888=Withroon|888=Longweed|888=Blechnod|54=1|60=20151128-17:59:50.537|38=2669.0|40=2|44=413.01766|59=4|10=031|8=FIXT.1.1|9=357|35=D|49=DLD_TEX|56=TEX1_DLD|34=30|52=20151128-17:59:50.539|11=ord28|453=0|78=1|79=Account1|539=1|524=nestedpartyID1|804=1|545=subnestedpartyID1|55=BHP|711=3|311=BLAH|879=198.0|311=FOO|457=2|458=UnderBlah|458=OverFoo|311=BOOM|887=5|888=Reverera|888=Orlanda|888=Withroon|888=Longweed|888=Blechnod|54=1|60=20151128-17:59:50.537|38=5661.0|40=2|44=122.0299|59=4|10=227|8=FIXT.1.1|9=355|35=D|49=DLD_TEX|56=TEX1_DLD|34=31|52=20151128-17:59:50.539|11=ord29|453=0|78=1|79=Account1|539=1|524=nestedpartyID1|804=1|545=subnestedpartyID1|55=BHP|711=3|311=BLAH|879=50.0|311=FOO|457=2|458=UnderBlah|458=OverFoo|311=BOOM|887=5|888=Reverera|888=Orlanda|888=Withroon|888=Longweed|888=Blechnod|54=1|60=20151128-17:59:50.537|38=8357.0|40=2|44=79.1641|59=4|10=126|8=FIXT.1.1|9=358|35=D|49=DLD_TEX|56=TEX1_DLD|34=32|52=20151128-17:59:50.539|11=ord30|453=0|78=1|79=Account1|539=1|524=nestedpartyID1|804=1|545=subnestedpartyID1|55=BHP|711=3|311=BLAH|879=145.0|311=FOO|457=2|458=UnderBlah|458=OverFoo|311=BOOM|887=5|888=Reverera|888=Orlanda|888=Withroon|888=Longweed|888=Blechnod|54=1|60=20151128-17:59:50.537|38=2630.0|40=2|44=285.15153|59=4|10=005|8=FIXT.1.1|9=358|35=D|49=DLD_TEX|56=TEX1_DLD|34=33|52=20151128-17:59:50.539|11=ord31|453=0|78=1|79=Account1|539=1|524=nestedpartyID1|804=1|545=subnestedpartyID1|55=BHP|711=3|311=BLAH|879=479.0|311=FOO|457=2|458=UnderBlah|458=OverFoo|311=BOOM|887=5|888=Reverera|888=Orlanda|888=Withroon|888=Longweed|888=Blechnod|54=1|60=20151128-17:59:50.537|38=5648.0|40=2|44=383.87213|59=4|10=034|8=FIXT.1.1|9=358|35=D|49=DLD_TEX|56=TEX1_DLD|34=34|52=20151128-17:59:50.539|11=ord32|453=0|78=1|79=Account1|539=1|524=nestedpartyID1|804=1|545=subnestedpartyID1|55=BHP|711=3|311=BLAH|879=919.0|311=FOO|457=2|458=UnderBlah|458=OverFoo|311=BOOM|887=5|888=Reverera|888=Orlanda|888=Withroon|888=Longweed|888=Blechnod|54=1|60=20151128-17:59:50.537|38=2884.0|40=2|44=356.52002|59=4|10=022|8=FIXT.1.1|9=358|35=D|49=DLD_TEX|56=TEX1_DLD|34=35|52=20151128-17:59:50.539|11=ord33|453=0|78=1|79=Account1|539=1|524=nestedpartyID1|804=1|545=subnestedpartyID1|55=BHP|711=3|311=BLAH|879=861.0|311=FOO|457=2|458=UnderBlah|458=OverFoo|311=BOOM|887=5|888=Reverera|888=Orlanda|888=Withroon|888=Longweed|888=Blechnod|54=1|60=20151128-17:59:50.537|38=1481.0|40=2|44=158.74361|59=4|10=024|8=FIXT.1.1|9=358|35=D|49=DLD_TEX|56=TEX1_DLD|34=36|52=20151128-17:59:50.539|11=ord34|453=0|78=1|79=Account1|539=1|524=nestedpartyID1|804=1|545=subnestedpartyID1|55=BHP|711=3|311=BLAH|879=654.0|311=FOO|457=2|458=UnderBlah|458=OverFoo|311=BOOM|887=5|888=Reverera|888=Orlanda|888=Withroon|888=Longweed|888=Blechnod|54=1|60=20151128-17:59:50.537|38=9609.0|40=2|44=444.12566|59=4|10=033|8=FIXT.1.1|9=358|35=D|49=DLD_TEX|56=TEX1_DLD|34=37|52=20151128-17:59:50.539|11=ord35|453=0|78=1|79=Account1|539=1|524=nestedpartyID1|804=1|545=subnestedpartyID1|55=BHP|711=3|311=BLAH|879=744.0|311=FOO|457=2|458=UnderBlah|458=OverFoo|311=BOOM|887=5|888=Reverera|888=Orlanda|888=Withroon|888=Longweed|888=Blechnod|54=1|60=20151128-17:59:50.537|38=2710.0|40=2|44=286.57697|59=4|10=039|8=FIXT.1.1|9=357|35=D|49=DLD_TEX|56=TEX1_DLD|34=38|52=20151128-17:59:50.539|11=ord36|453=0|78=1|79=Account1|539=1|524=nestedpartyID1|804=1|545=subnestedpartyID1|55=BHP|711=3|311=BLAH|879=631.0|311=FOO|457=2|458=UnderBlah|458=OverFoo|311=BOOM|887=5|888=Reverera|888=Orlanda|888=Withroon|888=Longweed|888=Blechnod|54=1|60=20151128-17:59:50.537|38=4319.0|40=2|44=44.23459|59=4|10=231|8=FIXT.1.1|9=358|35=D|49=DLD_TEX|56=TEX1_DLD|34=39|52=20151128-17:59:50.539|11=ord37|453=0|78=1|79=Account1|539=1|524=nestedpartyID1|804=1|545=subnestedpartyID1|55=BHP|711=3|311=BLAH|879=898.0|311=FOO|457=2|458=UnderBlah|458=OverFoo|311=BOOM|887=5|888=Reverera|888=Orlanda|888=Withroon|888=Longweed|888=Blechnod|54=1|60=20151128-17:59:50.537|38=2580.0|40=2|44=257.91697|59=4|10=054|8=FIXT.1.1|9=358|35=D|49=DLD_TEX|56=TEX1_DLD|34=40|52=20151128-17:59:50.539|11=ord38|453=0|78=1|79=Account1|539=1|524=nestedpartyID1|804=1|545=subnestedpartyID1|55=BHP|711=3|311=BLAH|879=464.0|311=FOO|457=2|458=UnderBlah|458=OverFoo|311=BOOM|887=5|888=Reverera|888=Orlanda|888=Withroon|888=Longweed|888=Blechnod|54=1|60=20151128-17:59:50.537|38=5020.0|40=2|44=426.68842|59=4|10=022|8=FIXT.1.1|9=357|35=D|49=DLD_TEX|56=TEX1_DLD|34=41|52=20151128-17:59:50.539|11=ord39|453=0|78=1|79=Account1|539=1|524=nestedpartyID1|804=1|545=subnestedpartyID1|55=BHP|711=3|311=BLAH|879=300.0|311=FOO|457=2|458=UnderBlah|458=OverFoo|311=BOOM|887=5|888=Reverera|888=Orlanda|888=Withroon|888=Longweed|888=Blechnod|54=1|60=20151128-17:59:50.537|38=6603.0|40=2|44=25.45473|59=4|10=218|8=FIXT.1.1|9=357|35=D|49=DLD_TEX|56=TEX1_DLD|34=42|52=20151128-17:59:50.539|11=ord40|453=0|78=1|79=Account1|539=1|524=nestedpartyID1|804=1|545=subnestedpartyID1|55=BHP|711=3|311=BLAH|879=563.0|311=FOO|457=2|458=UnderBlah|458=OverFoo|311=BOOM|887=5|888=Reverera|888=Orlanda|888=Withroon|888=Longweed|888=Blechnod|54=1|60=20151128-17:59:50.537|38=2307.0|40=2|44=50.26469|59=4|10=221|8=FIXT.1.1|9=357|35=D|49=DLD_TEX|56=TEX1_DLD|34=43|52=20151128-17:59:50.539|11=ord41|453=0|78=1|79=Account1|539=1|524=nestedpartyID1|804=1|545=subnestedpartyID1|55=BHP|711=3|311=BLAH|879=128.0|311=FOO|457=2|458=UnderBlah|458=OverFoo|311=BOOM|887=5|888=Reverera|888=Orlanda|888=Withroon|888=Longweed|888=Blechnod|54=1|60=20151128-17:59:50.538|38=9983.0|40=2|44=122.7465|59=4|10=233|8=FIXT.1.1|9=358|35=D|49=DLD_TEX|56=TEX1_DLD|34=44|52=20151128-17:59:50.539|11=ord42|453=0|78=1|79=Account1|539=1|524=nestedpartyID1|804=1|545=subnestedpartyID1|55=BHP|711=3|311=BLAH|879=416.0|311=FOO|457=2|458=UnderBlah|458=OverFoo|311=BOOM|887=5|888=Reverera|888=Orlanda|888=Withroon|888=Longweed|888=Blechnod|54=1|60=20151128-17:59:50.538|38=7114.0|40=2|44=362.06635|59=4|10=016|8=FIXT.1.1|9=357|35=D|49=DLD_TEX|56=TEX1_DLD|34=45|52=20151128-17:59:50.539|11=ord43|453=0|78=1|79=Account1|539=1|524=nestedpartyID1|804=1|545=subnestedpartyID1|55=BHP|711=3|311=BLAH|879=564.0|311=FOO|457=2|458=UnderBlah|458=OverFoo|311=BOOM|887=5|888=Reverera|888=Orlanda|888=Withroon|888=Longweed|888=Blechnod|54=1|60=20151128-17:59:50.538|38=290.0|40=2|44=321.85496|59=4|10=234|8=FIXT.1.1|9=358|35=D|49=DLD_TEX|56=TEX1_DLD|34=46|52=20151128-17:59:50.539|11=ord44|453=0|78=1|79=Account1|539=1|524=nestedpartyID1|804=1|545=subnestedpartyID1|55=BHP|711=3|311=BLAH|879=525.0|311=FOO|457=2|458=UnderBlah|458=OverFoo|311=BOOM|887=5|888=Reverera|888=Orlanda|888=Withroon|888=Longweed|888=Blechnod|54=1|60=20151128-17:59:50.538|38=9171.0|40=2|44=252.41312|59=4|10=015|8=FIXT.1.1|9=357|35=D|49=DLD_TEX|56=TEX1_DLD|34=47|52=20151128-17:59:50.539|11=ord45|453=0|78=1|79=Account1|539=1|524=nestedpartyID1|804=1|545=subnestedpartyID1|55=BHP|711=3|311=BLAH|879=796.0|311=FOO|457=2|458=UnderBlah|458=OverFoo|311=BOOM|887=5|888=Reverera|888=Orlanda|888=Withroon|888=Longweed|888=Blechnod|54=1|60=20151128-17:59:50.538|38=4903.0|40=2|44=79.36392|59=4|10=251|8=FIXT.1.1|9=357|35=D|49=DLD_TEX|56=TEX1_DLD|34=48|52=20151128-17:59:50.539|11=ord46|453=0|78=1|79=Account1|539=1|524=nestedpartyID1|804=1|545=subnestedpartyID1|55=BHP|711=3|311=BLAH|879=228.0|311=FOO|457=2|458=UnderBlah|458=OverFoo|311=BOOM|887=5|888=Reverera|888=Orlanda|888=Withroon|888=Longweed|888=Blechnod|54=1|60=20151128-17:59:50.538|38=5788.0|40=2|44=451.3529|59=4|10=245|8=FIXT.1.1|9=357|35=D|49=DLD_TEX|56=TEX1_DLD|34=49|52=20151128-17:59:50.539|11=ord47|453=0|78=1|79=Account1|539=1|524=nestedpartyID1|804=1|545=subnestedpartyID1|55=BHP|711=3|311=BLAH|879=486.0|311=FOO|457=2|458=UnderBlah|458=OverFoo|311=BOOM|887=5|888=Reverera|888=Orlanda|888=Withroon|888=Longweed|888=Blechnod|54=1|60=20151128-17:59:50.538|38=947.0|40=2|44=266.98398|59=4|10=011|8=FIXT.1.1|9=358|35=D|49=DLD_TEX|56=TEX1_DLD|34=50|52=20151128-17:59:50.539|11=ord48|453=0|78=1|79=Account1|539=1|524=nestedpartyID1|804=1|545=subnestedpartyID1|55=BHP|711=3|311=BLAH|879=988.0|311=FOO|457=2|458=UnderBlah|458=OverFoo|311=BOOM|887=5|888=Reverera|888=Orlanda|888=Withroon|888=Longweed|888=Blechnod|54=1|60=20151128-17:59:50.538|38=9479.0|40=2|44=216.05104|59=4|10=037|8=FIXT.1.1|9=358|35=D|49=DLD_TEX|56=TEX1_DLD|34=51|52=20151128-17:59:50.539|11=ord49|453=0|78=1|79=Account1|539=1|524=nestedpartyID1|804=1|545=subnestedpartyID1|55=BHP|711=3|311=BLAH|879=648.0|311=FOO|457=2|458=UnderBlah|458=OverFoo|311=BOOM|887=5|888=Reverera|888=Orlanda|888=Withroon|888=Longweed|888=Blechnod|54=1|60=20151128-17:59:50.538|38=9988.0|40=2|44=448.17532|59=4|10=052|8=FIXT.1.1|9=355|35=D|49=DLD_TEX|56=TEX1_DLD|34=52|52=20151128-17:59:50.539|11=ord50|453=0|78=1|79=Account1|539=1|524=nestedpartyID1|804=1|545=subnestedpartyID1|55=BHP|711=3|311=BLAH|879=879.0|311=FOO|457=2|458=UnderBlah|458=OverFoo|311=BOOM|887=5|888=Reverera|888=Orlanda|888=Withroon|888=Longweed|888=Blechnod|54=1|60=20151128-17:59:50.538|38=995.0|40=2|44=98.1462|59=4|10=145|8=FIXT.1.1|9=59|35=0|49=DLD_TEX|56=TEX1_DLD|34=53|52=20151128-18:00:01.014|10=203|8=FIXT.1.1|9=357|35=D|49=DLD_TEX|56=TEX1_DLD|34=54|52=20151128-18:00:07.948|11=ord1|453=0|78=1|79=Account1|539=1|524=nestedpartyID1|804=1|545=subnestedpartyID1|55=BHP|711=3|311=BLAH|879=877.0|311=FOO|457=2|458=UnderBlah|458=OverFoo|311=BOOM|887=5|888=Reverera|888=Orlanda|888=Withroon|888=Longweed|888=Blechnod|54=1|60=20151128-18:00:07.948|38=3449.0|40=2|44=379.61944|59=4|10=236|